:02000000912A43
:10000800FF00030E8301B2000A08B1008A017008DC
:10001800A8007108A7007408A6007508A50078084C
:10002800A4007908A3007B08A2007C08A1007D0831
:10003800A0008B102D30B5000030B600B72128087D
:10004800F0002708F1002608F4002508F500240828
:10005800F8002308F9002208FB002108FC0020080A
:10006800FD0031088A00320E8300FF0E7F0E090062
:10007800710DF80DF90D7408F8027508031C750F59
:10008800F902F00DF10D0F30FC00710DF80DF90DAE
:100098007408701C5528F8027508031C750FF902BE
:1000A8005A28F80775080318750FF907F00DF10DB0
:1000B800FC0B4928701866287408F8077508031897
:0800C800750FF90700000800A4
:1000D000831203132230FC00F801F901FA01FB013D
:1000E000FC0303199E280310FB0CFA0CF90CF80C06
:1000F000F30CF20CF10CF00C031C7028FC03031938
:1001000090287408F80775080318750FF907760822
:100110000318760FFA0777080318770FFB07742880
:100120007408F80775080318750FF907760803189F
:0E013000760FFA0777080318770FFB07080011
:0E013E00831203132A088A0029088200080091
:10014C0083120313F801F9011030FC00710DF80D46
:10015C00F90D7408F8027508031C750FF9020318E1
:10016C00BE287408F80775080318750FF9070310F3
:0A017C00F00DF10DFC0BAC2808009B
:10018600831203137408003A031DD2287508003A37
:10019600031DD228FF30F0007F30F1002B29831297
:1001A6000313FD01F901F801710870040319003405
:1001B60071087506FA00FA1BFD09FB01F51FE82810
:1001C600F409F509F40A0319F50AF11FEF28F009F5
:1001D600F109F00A0319F10A71087504FA00FA1B0D
:1001E60004293C207B181729FD1F0034F009F1096A
:1001F600F00A0319F10AF809F909F80A0319F90AC4
:100206000034F51F1329F11B0F297108F900700836
:10021600F800F101F001F728F101F001F00A0034CD
:10022600F109F009FB0AF428F80A0319F90A740817
:100236007802031DF72875087902031DF728F901CE
:10024600F801F00A0319F10AF11FF7280000FF343C
:0202560008009E
:100258008030831203133D06F00080307002031DC6
:10026800372900303C02031842293C08003CF000C2
:100278003D08031C013EF101F10246293C08F0004B
:060288003D08F100080032
:10028E00883083120313BE001330BF00C001C101BA
:10029E008830F0001330F1000030F2000030F3002F
:1002AE003C08F4003D08F500F601F70168207008DF
:1002BE00BE007108BF007208C0007308C100003094
:1002CE007302031D742900307202031D742902305B
:1002DE007102031D7429B230700203187729B629F2
:1002EE00B230F0000230F100F201F3017008BE02EC
:1002FE007108031C710FBF027208031C720FC0023B
:10030E007308031C730FC1020530F0007008031947
:10031E009729C10CC00CBF0CBE0CC113FF3E8E2919
:10032E003E08F0003F08F1004008F2004108F300DB
:10033E000130BE02031CBF02031CC002031CC1021B
:10034E0070087104720473040319B62900000000CA
:10035E0000000000000000000000000097290800C7
:10036E00831203133508BC003608BD002C2170081B
:10037E00B9007108BA008030F00080303606700285
:10038E00031DCB293508003C0318CE293B148030C1
:10039E003606F00080307002031DD729003035027A
:1003AE000318DA293B108030F00080303A067002D4
:1003BE00031DE3293908003C0318512A2D08BC00FF
:1003CE002E08BD0047213B1CFA29B70A0319B80AAB
:1003DE0038082C06031DF5292B083706031DF929AD
:1003EE00B701B8010A2A00303806031D002A003072
:1003FE003706031D062A2B08B7002C08B80001305B
:10040E00B702031CB8030130B902031CBA0304304F
:10041E00F4000030F5003708F0003808F100C32072
:10042E007808F0007908F100302A081488100815B1
:10043E008811502A0810881408158811502A08109F
:10044E00881408118815502A081488100811881568
:10045E00502A00307106031D362A0030700603192B
:10046E001C2A00307106031D3E2A01307006031946
:10047E00212A00307106031D462A02307006031928
:10048E00262A00307106031D4E2A0330700603190A
:06049E002B2ADA290800F8
:1004A4009F208A110A128000840AA90A0319AA0A41
:0804B400F003031D522A0800A9
:1004BC000030831203133402031D662A0130330209
:1004CC0003186C2A0130B3000030B4002B08F40080
:1004DC002C08F5006030F000EA30F100A62033085B
:1004EC00F4003408F500A6207008AD007108AE00C9
:0604FC00AF01B001080091
:10050200831603130810881008118811831208102B
:100512008810081188113308AB003408AC000800B9
:100522000730831603139F0007309C0001178B17B7
:100532000B160514851405150614071087100711EC
:1005420083128601880187010830B3000030B400AD
:100552008122EE30B3000230B4005E220710033075
:10056200FB008A30FC005530FD00FD0BB62AFC0B67
:10057200B62AFB0BB62A0000000087100330FB00EE
:100582008A30FC005530FD00FD0BC52AFC0BC52A44
:10059200FB0BC52A0000000007110330FB008A3064
:1005A200FC005530FD00FD0BD42AFC0BD42AFB0BBA
:1005B200D42A000000000518452B07140330FB0065
:1005C2008A30FC005530FD00FD0BE52AFC0BE52AC4
:1005D200FB0BE52A000000008518FF2A8714033070
:1005E200FB008A30FC005530FD00FD0BF62AFC0BA7
:1005F200F62AFB0BF62A00000000442B851C112B67
:1006020087100330FB008A30FC005530FD00FD0BE3
:10061200082BFC0B082BFB0B082B00000000442BC3
:100622000519232B07150330FB008A30FC005530D7
:10063200FD00FD0B1A2BFC0B1A2BFB0B1A2B0000D7
:100642000000442B051D352B07110330FB008A30B7
:10065200FC005530FD00FD0B2C2BFC0B2C2BFB0B57
:100662002C2B00000000442B07100330FB008A30C3
:10067200FC005530FD00FD0B3C2BFC0B3C2BFB0B17
:100682003C2B00000000DC2A8518AE2B87140330B7
:10069200FB008A30FC005530FD00FD0B4E2BFC0B9D
:1006A2004E2BFB0B4E2B000000000518682B071485
:1006B2000330FB008A30FC005530FD00FD0B5F2B40
:1006C200FC0B5F2BFB0B5F2B00000000AD2B051C0E
:1006D2007A2B07100330FB008A30FC005530FD00F6
:1006E200FD0B712BFC0B712BFB0B712B000000001F
:1006F200AD2B05198C2B07150330FB008A30FC004B
:100702005530FD00FD0B832BFC0B832BFB0B832B46
:1007120000000000AD2B051D9E2B07110330FB00CE
:100722008A30FC005530FD00FD0B952BFC0B952B00
:10073200FB0B952B00000000AD2B87100330FB0054
:100742008A30FC005530FD00FD0BA52BFC0BA52BC0
:10075200FB0BA52B00000000452B05191B2C85184F
:100762001B2C05181B2C07150330FB008A30FC00DC
:100772005530FD00FD0BBB2BFC0BBB2BFB0BBB2B2E
:10078200000000000518D52B07140330FB008A3047
:10079200FC005530FD00FD0BCC2BFC0BCC2BFB0BD6
:1007A200CC2B000000001A2C051CE72B071003308D
:1007B200FB008A30FC005530FD00FD0BDE2BFC0BEC
:1007C200DE2BFB0BDE2B000000001A2C8518F92B08
:1007D20087140330FB008A30FC005530FD00FD0B0E
:1007E200F02BFC0BF02BFB0BF02B000000001A2C63
:1007F200851C0B2C87100330FB008A30FC0055301F
:10080200FD00FD0B022CFC0B022CFB0B022C00004A
:1008120000001A2C07110330FB008A30FC0055300F
:10082200FD00FD0B122CFC0B122CFB0B122C0000FA
:080832000000AE2BAF2A1C2CC4
:02400E004A2F37
:00000001FF
