:02000000882B4B
:0E000600533083120313FD00FD0B0728080082
:10001400243083120313FC00B530FD00FD0B1028BF
:0A002400FC0B10280000000008008B
:0C002E00000000000000000000000800BE
:10003A0083120313CC1B23280610242806144C1BF6
:10004A002828861029288614CC1A2D2806112E282D
:10005A0006154C1A32288611332886153B1837287C
:10006A00061638280612861617208612CC193F283B
:10007A000610402806144C19442886104528861470
:10008A00CC18492806114A2806154C184E288611FC
:10009A004F2886153B18532806165428061286162A
:1000AA00172086123B1C5B280A205C2803200800C4
:1000BA00831203133B104B08CC001D203B1408008D
:1000CA0083120313F801F9011030FC00710DF80DC9
:1000DA00F90D7408F8027508031C750FF902031864
:1000EA007D287408F80775080318750FF9070310B7
:0A00FA00F00DF10DFC0B6B2808005F
:100104009428803083120313C700A728C030C70087
:10011400A7289430C700A728D430C700A728803068
:10012400C700A728831203134708013A0319832839
:100134004708023A031988284708033A03198B2809
:100144004708043A03198E2891284803F000470809
:10015400F0077008C7007008CC001D203B10CA01CE
:100164004A084907840000080319C0284A084907B7
:1001740084000008CB005D20CA0AB2283B140800A2
:10018400813083120313FD00FD0BC628000000001C
:02019400080061
:1001960083120313F8010830FC00700DF80D740883
:1001A600F8020318D828F8070310F00DFC0BD02826
:0201B60008003F
:1001B800043083120313FC003A30FD00FD0BE228E3
:0801C800FC0BE2280000080016
:1001D00083120313FB01FA01F9018030F800F10CDE
:1001E000F00C031CFC287408F90775080318750F38
:1001F000FA070318FB0A0310F01F04297408FA0712
:1002000075080318750FFB07FB0CFA0CF90CF80CBA
:10021000031CEF287B08F3007A08F2007908F1004C
:060220007808F000080060
:1002260083120313C21F2029200884002D3080006A
:10023600C109C209C10A0319C20A4108F0004208ED
:10024600F100F10CF00CF113F10CF00CF113F10CC0
:10025600F00CF113F10CF00CF1137008C3006430CC
:10026600F400CB207008031944296430F4004308D5
:10027600F000CB203030F0072008840070088000A2
:1002860048292008840030308000200AC6000A3041
:10029600F4004308F000CB200A30F400CB207808A5
:1002A600F0003030F0074608840070088000023005
:1002B6002007C6000A30F4004308F000CB20780877
:1002C600F0003030F00746088400700880004108CE
:1002D600C4004208C5000F304105F0004208F10095
:1002E6000030F1057008C4007108C5007130F400D3
:1002F6000230F500E8207008C4007108C50004301B
:100306002007C600E830F4000330F50065203030E1
:10031600F007460884007008800005302007C600F4
:100326006430F4000030F5004408F0004508F100A0
:1003360065200A30F4000030F50065207808F000EA
:100346007908F1003030F007460884007008800014
:1003560006302007C6000A30F4000030F5004408D5
:10036600F0004508F10065200A30F4000030F50081
:1003760065207808F0007908F1003030F00746086B
:1003860084007008800007302007C6000A30F40099
:100396000030F5004408F0004508F10065207808B3
:1003A600F0007908F1003030F00746088400700844
:1003B60080000230C7000530C8002008C90082202E
:0203C60008002D
:1003C800831203134208F1000130F0007108031989
:1003D800F129F00D7010FF3EEB297008C600F009F6
:1003E8007008C50041088400700880058417C4019E
:1003F8004408073C031C162A4408F0004308F1008F
:10040800700803190B2AF10CF113FF3E052A450861
:100418008005711C112A46088004C2204608800401
:0C042800C40AFC298413032003200800F0
:10043400831203134208F1000130F000710803191C
:10044400272AF00D7010FF3E212A7008C60070099B
:10045400C50041088400C401C3014308073C031CD0
:10046400532A450880058417450880051720460847
:1004740080041720841346080005F00003194F2A4E
:100484004308F1000130F000710803194D2AF00D02
:100494007010FF3E472A7008C40403200320C30AD7
:0804A4002F2A4408F0000800B3
:0E04AC00831203133E088A003D0882000800F8
:1004BA00831203134208F1000130F0007108031996
:1004CA006A2AF00D7010FF3E642A7008C400F00911
:1004DA004108840070088005841770088005DC20B4
:1004EA00440880048413C22044080005C30043085A
:1004FA00003A013003190030C300DC204308F00041
:02050A000800E7
:10050C00982A803083120313C100AB2AC030C1007B
:10051C00AB2A9430C100AB2AD430C100AB2A803056
:10052C00C100AB2A831203134108013A0319872A2D
:10053C004108023A03198C2A4108033A03198F2AFD
:10054C004108043A0319922A952A4203F000410803
:10055C00F0077008C1003B147008CC001D203B1044
:0A056C004308CC001D203B140800DA
:1005760083160313861206128611061186100610BC
:1005860083128612061206108610061186110A209C
:100596000A200A20061586158616172086120A20B6
:1005A6008616172086120A208616172086120A201B
:1005B60086118616172086120A208616172086129E
:1005C600061106148616172086120A2006108615AE
:1005D60086161720861286118616172086120A207E
:1005E60086161720861286158616172086120A206A
:1005F6008611861617208612061486140615861589
:0C0606008616172086120A203B140800FC
:10061200093083120313C1000230C2005D22093087
:10062200C1000230C200CC30C300E4210930C10055
:100632000230C2004430C300E421C730FD00FD0B8C
:10064200202B000000000930C1000230C2005D22F0
:100652000930C1000230C200CC30C300E4210930AD
:10066200C1000230C200BE30C300E4210930C10023
:100672000230C2001A227008BF00C0010930C10056
:100682000230C2001A227008F200F1017108BF079D
:1006920072080318013EC0070130CC001D200C3047
:1006A200CC001D200130C7000130C8002130C90034
:1006B20082200230C1000D30C200DF30C30086222A
:1006C2000230C1000E30C2004330C30086223F0810
:1006D200C1004008C20013210830FB009D30FC001D
:1006E2000530FD00FD0B732BFC0B732BFB0B732BE7
:0606F200000000000800FA
:1006F80056228A110A128000840ABD0A0319BE0A0A
:08070800F003031D7C2B080027
:10071000323083120313A0002030A1005430A20015
:100720006530A3006D30A4007030A5006530A600D0
:100730007230A7006130A8007430A9007530AA009B
:100740007230AB006530AC003A30AD002030AE0006
:100750002030AF002030B000B1013030B200303076
:10076000B3003030B4002E30B5003030B600303039
:10077000B7003030B8003030B900BA017A30831693
:100780009F0007309C00BB22BC010A303C020318CA
:10079000DA2B09230830FB009D30FC000530FD00FA
:1007A000FD0BD02BFC0BD02BFB0BD02B0000000043
:0807B000BC0AC52BC42BDB2B96
:02400E004A2F37
:00000001FF
